:020000040800F2
:1000000000500020F9210008D5030008D70300089C
:10001000D9030008DB030008DD030008000000002E
:10002000000000000000000000000000F11D0008BA
:10003000DF03000800000000911E0008D51E000824
:100040004122000841220008412200084122000804
:1000500041220008412200084122000841220008F4
:1000600041220008412200084122000841220008E4
:1000700041220008412200084122000841220008D4
:1000800041220008412200084122000841220008C4
:1000900041220008412200084122000841220008B4
:1000A00041220008E1030008412200084122000823
:1000B0004122000841220008412200084122000894
:1000C0004122000841220008412200084122000884
:1000D0004122000841220008412200084122000874
:1000E00041220008412200084122000800000000CF
:1000F0000000000000000000000000000000000000
:0C01000000000000000000005FF808F1A3
:10011000044B05481B1A062B02D9044B03B11847A0
:10012000704700BF130000201000002000000000F6
:1001300005490648091A891001EBD171491002D00E
:10014000034B03B118477047100000201000002037
:100150000000000010B5064C237843B9FFF7D8FF24
:10016000044B13B10448AFF300800123237010BD8A
:1001700010000020000000004422000808B5084BD1
:100180001BB108490848AFF300800848036813B959
:10019000BDE80840CCE7064B002BF9D09847F7E7BD
:1001A000000000001400002044220008100000207D
:1001B0000000000070B50F4E0F4D761BB61018BF33
:1001C000002405D0013455F8043B9847A642F9D1E4
:1001D0000A4E0B4D02F036F8761BB61018BF0024FD
:1001E00006D0013455F8043B9847A642F9D170BDBA
:1001F00070BD00BF08230008082300080C23000876
:100200000823000870B4860746D0541E002A41D047
:10021000CAB2034602E014F1FF343BD303F8012BCA
:100220009D07F8D1032C2ED9CDB245EA05250F2C18
:1002300045EA054519D9264603F11002103E0F2E56
:1002400042F8105C42F80C5C42F8085C42F8045C2E
:1002500002F11002F2D8A4F1100222F00F0204F011
:100260000F041032032C13440DD91E462246043AC3
:10027000032A46F8045BFAD8221F22F00302043254
:10028000134404F003042CB1C9B21C4403F8011B4D
:100290009C42FBD170BC704714460346C2E700BFC6
:1002A00008B50268034B9A4200D008BD00F018F967
:1002B000FBE700BF002C014072B6FEE700B591B02D
:1002C0002822002106A8FFF79DFF00230193029337
:1002D0000393049305930223069301230A931023A7
:1002E0000B9306A800F024F968B90F2301930021AD
:1002F000029103910491059101A800F057FB20B9E8
:1003000011B05DF804FBFFF7D7FFFFF7D5FF08B585
:1003100000F0D4F8FFF7D2FF01F06AFE01F0BAFE58
:1003200001F014FF00F01EF801F0C2FBFEE708B573
:10033000012001F0F7FBFBE708B5012001F0F2FB1B
:10034000FBE708B5012001F0EDFBFBE7034B036081
:10035000034B0B6080231360704700BF2C0200200A
:100360002C00002070B596B0164C0FAD26460FCE6F
:100370000FC596E8070085E8070000210FA801F0E7
:100380009CFB114B186008AD04F11C060FCE0FC585
:1003900096E8070085E80700002108A801F08DFB1A
:1003A0000A4B186001AD38340FCC0FC594E8070034
:1003B00085E80700002101A801F07FFB044B1860CD
:1003C00016B070BD5C220008CC160020CC110020B5
:1003D000C80F0020FEE7FEE7FEE7FEE7FEE77047F6
:1003E00008B5024800F0BEFD08BD00BFD0160020D1
:1003F00000B583B0114B9A6942F001029A619A6983
:1004000002F001020092009ADA6942F08052DA6149
:10041000DB6903F080530193019B00220F216FF0F1
:10042000010000F0CBFC064A536823F0E06343F080
:100430000073536003B05DF804FB00BF001002407E
:100440000000014000B589B000220146192000F0EB
:10045000B5FC192000F0E4FC144B9A6942F40062E8
:100460009A619B6903F400630193019B02A903A8AD
:1004700000F076FB00F064FB0D4BA3FB00239B0C0C
:10048000013B0C480C4A026040F2E732C260436014
:1004900000230361836000F05FFE18B1012009B002
:1004A0005DF804FB034800F025FDF8E7001002406A
:1004B00083DE1B43D0160020002C014008B5074AFC
:1004C000136843F010031360032000F065FC002064
:1004D000FFF7B8FFFFF78CFF002008BD00200240A7
:1004E000034A1168034B1B780B441360704700BF2D
:1004F0001817002000000020014B1868704700BF4B
:100500001817002082B0084B1B68084AA2FB03237F
:100510005B0A00FB03F0019000BF019B5A1E019291
:10052000002BF9D102B0704708000020D34D6210B3
:10053000002800F0F58170B582B00446036813F01E
:10054000010F3DD0AB4B5B6803F00C03042B2ED0A6
:10055000A84B5B6803F00C03082B23D06368B3F54A
:10056000803F51D0002B55D103F1804303F5043374
:100570001A6822F480321A601A6822F480221A6003
:100580006368002B60D0FFF7B7FF0546994B1B68E7
:1005900013F4003F14D1FFF7AFFF401B6428F5D9D7
:1005A0000320C2E1934B5B6813F4803FD6D0914B9C
:1005B0001B6813F4003F03D06368002B00F0B28186
:1005C000236813F0020F65D08A4B5B6813F00C0FA1
:1005D0004ED0884B5B6803F00C03082B43D0236993
:1005E000002B79D00122844B1A60FFF785FF054666
:1005F000804B1B6813F0020F65D1FFF77DFF401B96
:100600000228F5D9032090E17A4A136843F4803335
:100610001360B5E7B3F5A02F09D0764B1A6822F422
:1006200080321A601A6822F480221A60A8E703F167
:100630008043A3F53C331A6842F480221A601A689A
:1006400042F480321A609BE7FFF756FF0546694B7C
:100650001B6813F4003FB3D0FFF74EFF401B642824
:10066000F5D9032061E1634B5B6813F4803FB6D199
:10067000604B1B6813F0020F04D02369012B01D0DB
:10068000012052E15B4A136823F0F803616943EAF1
:10069000C1031360236813F0080F32D0A369002B45
:1006A0006ED00122554B1A60FFF726FF0546514BCD
:1006B0005B6A13F0020F21D1FFF71EFF401B0228D7
:1006C000F5D9032031E14B4A136823F0F80361693F
:1006D00043EAC1031360DDE70022474B1A60FFF7CE
:1006E0000BFF0546434B1B6813F0020FD2D0FFF7F8
:1006F00003FF401B0228F5D9032016E10120FFF774
:1007000001FF236813F0040F00F09880394BDB6978
:1007100013F0805F46D1374BDA6942F08052DA61DC
:10072000DB6903F080530193019B0125344B1B6867
:1007300013F4807F38D0E368012B49D0002B4DD1D2
:1007400003F1804303F504331A6A22F001021A62AE
:100750001A6A22F004021A62E368002B5CD0FFF7E9
:10076000CBFE0646234B1B6A13F0020F65D1FFF741
:10077000C3FE801B41F288339842F3D90320D4E0B2
:1007800000221E4B1A60FFF7B7FE0546194B5B6A45
:1007900013F0020FB5D0FFF7AFFE401B0228F5D9CA
:1007A0000320C2E00025C1E7154A136843F48073B3
:1007B0001360FFF7A1FE0646114B1B6813F4807F00
:1007C000B9D1FFF799FE801B6428F5D90320ACE06E
:1007D000084A136A43F001031362BDE7052B11D0E9
:1007E000044B1A6A22F001021A621A6A22F0040209
:1007F0001A62B1E700100240000042428004424207
:10080000007000404C4B1A6A42F004021A621A6AE5
:1008100042F001021A629FE7FFF76EFE0646464B62
:100820001B6A13F0020F08D0FFF766FE801B41F22F
:1008300088339842F3D9032077E0E5B9E369002BC8
:1008400072D03D4A526802F00C02082A56D0022BA0
:1008500017D00022394B1A60FFF74EFE0446364B84
:100860001B6813F0007F47D0FFF746FE001B0228ED
:10087000F5D9032059E0304AD36923F08053D3617E
:10088000DCE700222D4B1A60FFF736FE05462A4BA7
:100890001B6813F0007F06D0FFF72EFE401B0228D6
:1008A000F5D9032041E0236AB3F5803F1AD02249ED
:1008B0004B6823F47413226A606A024313434B604B
:1008C00001221E4B1A60FFF717FE04461A4B1B68E5
:1008D00013F0007F0ED1FFF70FFE001B0228F5D9A1
:1008E000032022E0144A536823F40033A1680B4329
:1008F0005360DCE7002018E0002016E0012B16D042
:100900000D4B5B6803F48031226A914201D00120D3
:100910000BE003F47013626A93420AD0012004E0F2
:1009200001207047012000E0002002B070BD0120CE
:10093000FBE70020F9E700BF0010024060004242E0
:1009400010B586B0154C94E80F000DF1180E0EE9A5
:100950000F00238AADF80430114B5B6803F00C02E2
:10096000082A18D1C3F38342724412F8102C13F4EE
:10097000803F03D10B4800FB02F00DE0084B5B68A1
:10098000C3F34043734413F8143C074800FB02F0E0
:10099000B0FBF3F000E0044806B010BDB022000840
:1009A0000010024000093D0000127A00002800F00B
:1009B000A38070B50446524B1B6803F007038B42BB
:1009C0000CD24F4A136823F007030B4313601368DC
:1009D00003F00703994201D0012070BD236813F092
:1009E000020F17D013F0040F04D0464A536843F4A3
:1009F000E0635360236813F0080F04D0414A536842
:100A000043F4605353603F4A536823F0F003A068F7
:100A1000034353600D46236813F0010F31D0636820
:100A2000012B20D0022B25D0364A126812F0020F7B
:100A300064D034494A6822F0030213434B60FFF745
:100A40005BFD06462F4B5B6803F00C036268B3EB5B
:100A5000820F16D0FFF750FD801B41F28833984279
:100A6000F0D9032070BD274A126812F4003FE0D18C
:100A7000012070BD234A126812F0007FD9D10120F5
:100A800070BD1F4B1B6803F007039D420CD21C4A2C
:100A9000136823F007032B431360136803F0070365
:100AA0009D4201D0012070BD236813F0040F06D0D1
:100AB000144A536823F4E063E1680B4353602368EE
:100AC00013F0080F07D00F4A536823F460532169CD
:100AD00043EAC1035360FFF733FF0A4B5B68C3F37C
:100AE0000313094AD35CD840084B1860084B1868B8
:100AF000FFF7A8FC002070BD01207047012070BDE9
:100B00000020024000100240E822000808000020F7
:100B100004000020014B1868704700BF0800002047
:100B200008B5FFF7F7FF044B5B68C3F30223034AE2
:100B3000D35CD84008BD00BF00100240F822000876
:100B400008B5FFF7E7FF044B5B68C3F3C223034A12
:100B5000D35CD84008BD00BF00100240F822000856
:100B60000F2303600B4B5A6802F0030242605A687D
:100B700002F0F00282605A6802F4E062C2605B68D0
:100B8000DB0803F4E0630361034B1B6803F0070316
:100B90000B6070470010024000200240F0B583B0A7
:100BA0000026344671E0002D00F0A280012D00D116
:100BB000CE68FF2B00F2B0808646FF2B00F2AF809C
:100BC000A500DEF800200F27AF4022EA070206FA50
:100BD00005F52A43CEF800204A6812F0805F53D012
:100BE000644A956945F001059561926902F0010238
:100BF0000192019AA508AF1C5F4A52F8272004F021
:100C00000307BF004FF00F0E0EFA07FE22EA0E0296
:100C1000DFF874E1704500F089800EF5806E704554
:100C200000F087800EF5806E704500F085800EF52F
:100C3000806E704577D04FF0040E0EFA07F73A43F6
:100C400002354D4F47F825204A6812F4803F76D090
:100C50004A4D2A681A432A604A6812F4003F74D049
:100C6000464D6A681A436A604A6812F4801F72D05F
:100C7000424DAA681A43AA604A6812F4001F70D055
:100C80003E4DEA681343EB6001340B6833FA04F21B
:100C90006DD00122A24013409A42F5D14D68122D29
:100CA00030D00BD8022D2AD07FF67DAF032D2FD068
:100CB000112D7FF47EAFCE6804367AE7304FBD4207
:100CC00016D00CD92F4FBD4212D007F58037BD4248
:100CD0000ED0A7F58017BD427FF46BAF08E0A7F5F3
:100CE0008017BD4204D007F58037BD427FF461AF65
:100CF0008D687DB1012D08D04261082659E7CE6884
:100D0000083656E7CE680C3653E70261082650E7EE
:100D100000264EE704264CE700F1040E4DE7A4F14F
:100D20000805AD004DE74FF0030E86E74FF0000ECB
:100D300083E74FF0010E80E74FF0020E7DE70F4D85
:100D40002A6822EA03022A6086E70C4D6A6822EAD2
:100D500003026A6088E7094DAA6822EA0302AA60D2
:100D60008AE7064DEA6822EA0303EB608CE703B0EA
:100D7000F0BD00BF0010024000000140000401402F
:100D800000002110000031100008014012B90904D0
:100D90000161704701617047074AD36823F4E0633B
:100DA0001B041B0C000200F4E060184340F0BF601D
:100DB00040F40030D060704700ED00E030B4164BD6
:100DC000DB68C3F30223C3F10704042C28BF042407
:100DD0001D1D062D17D9033B012505FA04F4013C1E
:100DE0002140994005FA03F3013B134019430028C1
:100DF0000BDB0901C9B200F1604000F5614080F8E9
:100E0000001330BC70470023E6E700F00F00090133
:100E1000C9B2024B1954F4E700ED00E014ED00E014
:100E2000002808DB420900F01F00012303FA00F04C
:100E3000014B43F82200704700E100E0002856D043
:100E400010B50446436A33B94368B3F5827F05D0D1
:100E50000023C36102E00023036143610023A36216
:100E600094F85130002B3CD0022384F85130226892
:100E7000136823F0400313602268636803F48273ED
:100E8000A16801F404410B43E16801F400610B43E4
:100E9000216901F002010B43616901F001010B437B
:100EA000A16901F400710B43E16901F038010B43C2
:100EB000216A01F080010B43A16A01F400510B4348
:100EC00013602268638B03F0040353602268D369C4
:100ED00023F40063D36100206065012384F851305E
:100EE00010BD84F85030204601F0F4F8BCE7012032
:100EF0007047704790F83D30DBB2012B01D00120E4
:100F00007047022380F83D300268D36843F0010344
:100F1000D3600368104A934210D0B3F1804F0DD0D4
:100F2000A2F59432934209D002F58062934205D033
:100F30001A6842F001021A60002070479A6802F0B5
:100F40000702062A05D01A6842F001021A60002042
:100F500070470020704700BF002C01407047704769
:100F60007047704710B5044603681A6912F0020F03
:100F700011D0DA6812F0020F0DD06FF002021A6180
:100F80000123037703689B6913F0030F70D0FFF709
:100F9000E6FF0023237723681A6912F0040F12D0AA
:100FA000DA6812F0040F0ED06FF004021A61022307
:100FB000237723689B6913F4407F5FD02046FFF7B7
:100FC000CEFF0023237723681A6912F0080F12D08E
:100FD000DA6812F0080F0ED06FF008021A610423CD
:100FE00023772368DB6913F0030F4ED02046FFF709
:100FF000B6FF0023237723681A6912F0100F12D06E
:10100000DA6812F0100F0ED06FF010021A61082388
:1010100023772368DB6913F4407F3DD02046FFF738
:101020009EFF0023237723681A6912F0010F03D073
:10103000DA6812F0010F36D123681A6912F0800FB6
:1010400003D0DA6812F0800F34D123681A6912F0E5
:10105000400F03D0DA6812F0400F32D123681A69CA
:1010600012F0200F03D0DA6812F0200F30D110BD3B
:10107000FFF774FF2046FFF773FF8AE72046FFF76C
:101080006DFF2046FFF76CFF9BE72046FFF766FFEA
:101090002046FFF765FFACE72046FFF75FFF2046DD
:1010A000FFF75EFFBDE76FF001021A612046FFF710
:1010B000F7F8C1E76FF080021A61204600F078F877
:1010C000C3E76FF040021A612046FFF74AFFC5E709
:1010D0006FF020021A61204600F069F8C7E70000AF
:1010E00003681C4A904227D0B0F1804F24D0A2F56B
:1010F0009432904220D002F5806290421CD0154A72
:1011000090421ED0B0F1804F1BD0A2F59432904295
:1011100017D002F58062904213D023F080034A6911
:10112000134303608B68C3620B688362094B984268
:101130000CD001234361704723F070034A681343C6
:10114000DDE723F44073CA681343E6E70B690363E2
:10115000EFE700BF002C014038B310B5044690F80B
:101160003D30EBB1022384F83D30211D2068FFF7AC
:10117000B7FF012384F8463084F83E3084F83F30CE
:1011800084F8403084F8413084F8423084F84330A9
:1011900084F8443084F8453084F83D30002010BD98
:1011A00080F83C30FFF7A5FEDCE701207047704770
:1011B0007047000038B504460268136923F44053B1
:1011C000C1680B4313618368026913434269134387
:1011D0000168CA6822F4B05222F00C021343CB60BB
:1011E0000268536923F4407381690B4353610268B9
:1011F000124B9A421FD0FFF793FC216800EB80004E
:1012000000EB800063689B00B0FBF3F00C4DA5FB86
:1012100000325409642202FB140213013233A5FB8D
:1012200003235B0903F0F00202EB041203F00F0347
:1012300013448B6038BDFFF783FCDEE700380140C4
:101240001F85EB5158B310B5044690F839300BB3F5
:10125000242384F839302268D36823F40053D36000
:101260002046FFF7A7FF2268136923F49043136118
:101270002268536923F02A0353612268D36843F438
:101280000053D3600020E063202384F8393084F8D1
:101290003A3010BD80F8383000F072FFD8E70120F6
:1012A0007047704700F1080343604FF0FF328260DF
:1012B000C36003610023036070470023036170472C
:1012C00043684B609A688A609A68516099600861C7
:1012D000036801330360704730B40D68B5F1FF3F18
:1012E00002D000F1080202E0026904E01A465368E5
:1012F0001C68A542FAD253684B6099608A605160BD
:10130000086103680133036030BC704703694268B9
:10131000816891608268416851605A68904206D045
:10132000002202611A68013A1A60186870478268E0
:101330005A60F5E70A4B1B681B684BB901234BB990
:10134000074B1B68DB68DB685A68064B1A607047FE
:101350000023F4E74FF0FF32024B1A60704700BFE2
:1013600084020020580300202DE9F047804699466A
:10137000089D099F0A9C266B02F18042013A06EB08
:10138000820626F0070600230F2B07D8C85CE21858
:1013900082F83400CA5C0AB10133F5E7002384F80F
:1013A0004330062D00D90625E56265644FF0000A3A
:1013B000C4F848A0201DFFF780FF04F11800FFF7D4
:1013C0007CFF2461C5F10705A5616462C4F84CA0E7
:1013D00084F850A04A464146304600F0F5FC2060B3
:1013E00007B13C60BDE8F08738B5002407E004EBA6
:1013F000840293000E481844FFF754FF0134062C72
:10140000F5D90C4D2846FFF74DFF0B4C2046FFF752
:1014100049FF0A48FFF746FF0948FFF743FF09481D
:10142000FFF740FF084B1D60084B1C6038BD00BF34
:101430008C020020300300204403002060030020C1
:101440008C03002078030020840200208802002002
:1014500010B5044600F0DEFC204A13680133136027
:101460001F4B1B68002B31D01E4B1B683BB91C4B1C
:101470001B68DA6AE36A9A4201D8194B1C601A4A5F
:10148000136801331360E36A01229A401749086820
:1014900002430A6003EB83039A00211D14481044A1
:1014A000FFF70EFF00F0D8FC0E4B1B686BB10C4B26
:1014B0001B68DA6AE36A9A4207D24FF080520D4BFA
:1014C0001A60BFF34F8FBFF36F8F10BD044B1C60CA
:1014D0001368012BD3D1FFF787FFD0E71803002053
:1014E0008002002074030020280300202C03002029
:1014F0008C02002004ED00E010B5044690F8513055
:1015000063B1012B11D0022B12D04FF0500383F3A3
:101510001188BFF36F8FBFF34F8FFEE7006B00F0B2
:10152000EBFB204600F0E8FB10BD00F0E5FB10BD32
:1015300010BD00000F4B1B68D3B110B500F06AFC62
:101540000D4BDB68DC68201DFFF7E0FE0B4A1368DB
:10155000013B1360074A1368013B136000F07CFCF9
:101560002046FFF7C9FF034B1B68002BE6D110BDD7
:10157000704700BF1C0300208C03002018030020CC
:1015800008B5FFF7D7FF064B1B68012BF9D94FF0C1
:101590008052044B1A60BFF34F8FBFF36F8FF0E799
:1015A0008C02002004ED00E070B504460E461D4B91
:1015B0001D681D4B18680430FFF7A8FE50B91A4B80
:1015C0001B68DA6A012303FA02F218490B6823EA5E
:1015D00002030B60B4F1FF3F13D02C44124B1B6885
:1015E0005C60A54216D8124B18680F4B196804317D
:1015F000FFF772FE0F4B1B689C4201D20D4B1C6023
:1016000070BD002EE9D0084B196804310A48FFF775
:1016100057FE70BD094B1868034B19680431FFF77A
:101620005BFE70BDA0030020800200202C03002080
:101630008402002058030020780300208802002044
:1016400070B586B00B9D0C9C75B1B4B15426049650
:10165000049E542E1AD04FF0500383F31188BFF329
:101660006F8FBFF34F8FFEE74FF0500383F3118866
:10167000BFF36F8FBFF34F8FFEE74FF0500383F33D
:101680001188BFF36F8FBFF34F8FFEE725630225ED
:1016900084F8515000250395029405AD01950A9DEB
:1016A0000095FFF761FE2046FFF7D2FE059806B0D1
:1016B00070BD2DE9F04385B006460F4615469846A5
:1016C000900000F095FA10B38146542000F090FA93
:1016D0000446C0B1C0F83090DCB1002384F851302A
:1016E000039302940D9B01930C9B009343462A465F
:1016F00039463046FFF738FE2046FFF7A9FE0120A5
:1017000005B0BDE8F083484600F0F6FAE4E70024AF
:10171000E2E74FF0FF30F3E710B588B000240594FE
:10172000069407AA06A905A8FEF710FE059B0293DA
:10173000069B019300942346079A10491048FFF72F
:101740007FFF18B101231BB908B010BD0023FAE7D1
:101750004FF0500383F31188BFF36F8FBFF34F8FA8
:101760004FF0FF32074B1A600122074B1A6000222C
:10177000064B1A6000F0E0FBE6E700BF002300081C
:10178000811500085803002074030020A0030020E6
:10179000024A136801331360704700BF240300201E
:1017A000F8B53C4B1B68002B68D13B4B1D680135DD
:1017B0001D60C5B9394B1B681B6843B14FF050031E
:1017C00083F31188BFF36F8FBFF34F8FFEE7334A68
:1017D0001168334B186810601960324A136801337E
:1017E0001360FFF7A7FD304B1B689D423AD20024DF
:1017F0002E4B1B68DB6A03EB83039A002C4B9B5830
:10180000012B40D901243EE00124244B1B681B68B6
:1018100053B3002353BB214B1B68DB68DE6873683E
:101820009D4228D3371D3846FFF770FDB36A1BB1C0
:1018300006F11800FFF76AFDF36A01229A401D497C
:10184000086802430A6003EB83039A00394618488C
:101850001044FFF735FDF26A144B1B68DB6A9A42AD
:10186000D2D2D2E70024D0E70123D3E74FF0FF32F2
:101870000D4B1A60BCE70C4A1360B9E70E4A1368B7
:101880000133136000240D4B1B6803B10124204673
:10189000F8BD00BF24030020A00300208402002024
:1018A000880200205C0300205803002080020020F2
:1018B0008C0200202C03002020030020A403002021
:1018C00038B5354B1B6843B94FF0500383F311888B
:1018D000BFF36F8FBFF34F8FFEE700F09BFA2E4BE5
:1018E0001A68013A1A601B68002B50D12B4B1B68F9
:1018F00023B9002400F0B0FA204638BD0024284B5C
:101900001B681BB3264BDB68DC6804F11800FFF78B
:10191000FDFC251D2846FFF7F9FCE36A01229A40E9
:101920002049086802430A6003EB83039A002946B2
:101930001D481044FFF7C4FCE26A1C4B1B68DB6ABD
:101940009A42DCD301221A4B1A60D8E70CB1FFF798
:10195000F1FC184B1C6874B9154B1B68CBB14FF0E8
:101960008052154B1A60BFF34F8FBFF36F8F012466
:10197000C0E7013C07D0FFF713FF0028F9D0012290
:101980000B4B1A60F5E700220A4B1A60E4E70024CB
:10199000B0E70024AEE700BF2403002018030020B6
:1019A000600300202C0300208C0200208002002015
:1019B000A40300202003002004ED00E010B5A8B12E
:1019C0000446104B1B6843B14FF0500383F311885A
:1019D000BFF36F8FBFF34F8FFEE7FFF7D9FE0021F4
:1019E0002046FFF7E1FDFFF76BFF00E0002038B96C
:1019F0004FF08052044B1A60BFF34F8FBFF36F8FCD
:101A000010BD00BF2403002004ED00E0204B1B6844
:101A1000C3B900221F4B1A601F4B1B68B3FA83F334
:101A2000DBB2C3F11F0303EB83018A001B498A5811
:101A300062B94FF0500383F31188BFF36F8FBFF388
:101A40004F8FFEE70122134B1A60704710B4134802
:101A50009A00D418A10001444C6864684C601A4490
:101A600091000831084484420AD003EB83039A00B2
:101A70000A4B13445B68DA68094B1A6010BC704764
:101A8000606803EB83029100044A0A445060ECE76B
:101A900024030020A40300202C0300208C0200203B
:101AA00080020020842801D0033070470020704756
:101AB00008B5FFF731FE002008BD2DE9F04387B0DF
:101AC00004460F464569BDB18669AEB1D0F80480C1
:101AD000D0F80090B0F90800FFF7E4FF2269029601
:101AE000019500903B4649464046FFF7A9FD059009
:101AF000059807B0BDE8F08365682668D4F81080C3
:101B0000B4F90800FFF7CEFF05AB019300903B4608
:101B10001FFA88F231462846FFF7CBFD0128E7D0AF
:101B20000020E6E708B5034600B901231846FFF791
:101B300045FF002008BD0000124A12F0070F1ED01A
:101B4000D11D21F00701C1F5406313440A460E4838
:101B50000260002141601344083B23F007030B4857
:101B6000036059601960991A51601360084B19603D
:101B7000084B19604FF00042074B1A6070474FF452
:101B80004063E4E7AC030020B80F0020A803002066
:101B9000B40F0020B00F0020AC0F002010B4124B87
:101BA0001A6882421AD359685C18A04203D140686F
:101BB00001445960184641684418A24212D10B4CA6
:101BC0002468A2420CD05268114441601A6812681D
:101BD0000260984200D0186010BC70471346DFE7DF
:101BE0000460F6E70260F4E7B80F0020A8030020C5
:101BF00070B50446FFF7CCFD3A4B1B68BBB13A4BBE
:101C00001B681C4263D1ACB1083414F0070F11D02B
:101C100024F00704083404F007035BB14FF05003CD
:101C200083F31188BFF36F8FBFF34F8FFEE7FFF78A
:101C300083FFE4E7002C4CD02C4B1B689C424AD815
:101C40002B4B1D6801E02B4615466A68944202D969
:101C50002A68002AF7D1234A126895423DD01E68AF
:101C600008362A681A606B681B1B102B10D92819BC
:101C700010F0070F08D04FF0500383F31188BFF323
:101C80006F8FBFF34F8FFEE743606C60FFF786FFF7
:101C90006A6816490B689B1A0B60164909688B42E3
:101CA00001D214490B60104B1B6813436B60002377
:101CB0002B60FFF705FE16F0070F10D04FF0500312
:101CC00083F31188BFF36F8FBFF34F8FFEE70026BA
:101CD000EFE70026EDE70026EBE70026E9E73046D0
:101CE00070BD00BFA8030020AC0F0020B00F002083
:101CF000B80F0020B40F002080B338B50446A0F11F
:101D0000080550F8042C164909680A4208D14FF01A
:101D1000500383F31188BFF36F8FBFF34F8FFEE73C
:101D200050F8080C40B14FF0500383F31188BFF313
:101D30006F8FBFF34F8FFEE722EA010244F8042CB5
:101D4000FFF726FD54F8041C064A13680B44136081
:101D50002846FFF723FFFFF7B3FD38BD704700BFEC
:101D6000AC0F0020B00F002082B0002301930D4B78
:101D70001B68B3F1FF3F08D04FF0500383F3118885
:101D8000BFF36F8FBFF34F8FFEE74FF0500383F326
:101D90001188BFF36F8FBFF34F8F019B002BFCD0D7
:101DA00002B070470C00002006480068006880F30D
:101DB000088862B661B6BFF34F8FBFF36F8F00DF45
:101DC00000BF000008ED00E04FF0807340F8043CD5
:101DD00021F0010140F8081C034B40F80C3C40F88E
:101DE000202C4038704700BF691D0008000000002B
:101DF000074B19680868B0E8F00F80F30988BFF353
:101E00006F8F4FF0000080F311884EF00D0E704779
:101E1000800200204FF0500383F31188BFF36F8FCF
:101E2000BFF34F8F0A4A136801331360012B0DD1A2
:101E3000084B1B6813F0FF0F08D04FF0500383F3DB
:101E40001188BFF36F8FBFF34F8FFEE7704700BF5E
:101E50000C00002004ED00E0094B1B6843B94FF073
:101E6000500383F31188BFF36F8FBFF34F8FFEE7EB
:101E7000013B034A13600BB983F31188704700BF1D
:101E80000C00002000000000000000000000000026
:101E9000EFF30980BFF36F8F0D4B1A6820E9F00F45
:101EA00010602DE908404FF0500080F31188FFF7D3
:101EB000ADFD4FF0000080F31188BDE808401968BF
:101EC0000868B0E8F00F80F30988BFF36F8F7047A0
:101ED0008002002008B54FF0500383F31188BFF350
:101EE0006F8FBFF34F8FFFF75BFC18B14FF080523D
:101EF000024B1A60002383F3118808BD04ED00E053
:101F0000084A0023136008490B60084B1B68084906
:101F1000A1FB03139B09013B06490B6007231360D8
:101F2000704700BF10E000E018E000E0080000206B
:101F3000D34D621014E000E010B582B0274B1A7840
:101F4000D2B20192FF221A701B78DBB28DF80330F7
:101F50009DF8033003F05003214A13700722214BF0
:101F60001A6009E01F4A1368013B13609DF80330B3
:101F70005B00DBB28DF803309DF8033013F0800F67
:101F8000F0D1184B1B68032B08D04FF0500383F39C
:101F90001188BFF36F8FBFF34F8FFEE71B0203F46F
:101FA000E063104A1360019BDBB20C4A13700E4BC6
:101FB0001A6842F470021A601A6842F070421A609D
:101FC000FFF79EFF0024094B1C60FFF7EDFEFFF7B3
:101FD0001DFDFFF7C9FE204602B010BD00E400E081
:101FE000C00F0020C40F002020ED00E00C000020F6
:101FF0002DE9F04188B000240494059406940794D8
:10200000214B9A6942F010029A619A6902F010021B
:102010000192019A9A6942F008029A619A6902F063
:1020200008020292029A9A6942F004029A619B693C
:1020300003F004030393039BDFF8548022464FF41C
:1020400000514046FEF7A2FE104D224640F20341E9
:102050002846FEF79BFE4FF4005304930127059793
:1020600006940226079604A94046FEF797FD40F223
:102070000343049305970694079604A92846FEF7A0
:102080008DFD08B0BDE8F08100100240000C014059
:102090000010014008B50D480D4B03604FF48273EA
:1020A000436000238360C360036143614FF40072A7
:1020B0008261C3610362436283620A23C362FEF7E3
:1020C000BDFE00B908BDFEF7F7F8FBE71C170020BE
:1020D0000038004010B586B00023029303930493A8
:1020E00005930268174B9A4201D006B010BD03F564
:1020F000EC33DA6942F48042DA61DA6902F4804250
:102100000092009A9A6942F008029A619B6903F072
:1021100008030193019B4FF420430293022303938E
:1021200003230593084C02A92046FEF737FD4FF420
:102130008043029300230393049302A92046FEF7F1
:102140002DFDD2E700380040000C014008B50A48D8
:102150000A4B03604FF4E133436000238360C360A4
:1021600003610C2242618361C361FFF76BF800B920
:1021700008BDFEF7A1F8FBE7741700200038014006
:1021800010B586B00023029303930493059302686D
:10219000174B9A4201D006B010BD03F558439A6917
:1021A00042F480429A619A6902F480420092009A55
:1021B0009A6942F004029A619B6903F00403019357
:1021C000019B4FF4007302930223039303230593AF
:1021D000084C02A92046FEF7E1FC4FF4806302930D
:1021E00000230393049302A92046FEF7D7FCD2E70D
:1021F0000038014000080140002103E00B4B5B5810
:10220000435004310A480B4B42189A42F6D30A4A0B
:1022100002E0002342F8043B084B9A42F9D3FFF74F
:1022200040F8FDF7C7FFFEF772F87047102300086B
:10223000000000201000002010000020B417002033
:10224000FEE70000F8B500BFF8BC08BC9E4670472A
:0C225000F8B500BFF8BC08BC9E46704703
:10225C00DC2200082F030008000000000000000032
:10226C0080000000CC140020D0110020D4220008E3
:10227C0039030008FDFF0000000000008000000092
:10228C007812002078140020C422000843030008B0
:10229C00FDFF00000000000080000000CC0F0020BB
:1022AC002412002002030405060708090A0B0C0D72
:1022BC000E0F10100102000073656E736F724D6F7C
:1022CC006E69746F72000000636F6E736F6C6500E3
:1022DC006865617274426561740000000000000062
:1022EC0000000000010203040607080900000000BA
:0C22FC000102030449444C4500000000AE
:042308007D0100084B
:04230C00550100086F
:1023100001000000100000000024F400AAAAAAAAEC
:04000005080021F9D5
:00000001FF
